:100000000C945C000C9479000C9479000C947900A9
:100010000C9479000C9479000C9479000C9479007C
:100020000C9479000C9479000C9479000C9479006C
:100030000C9479000C9479000C9479000C9479005C
:100040000C94A0010C9479000C9479000C94790024
:100050000C9479000C9479000C9479000C9479003C
:100060000C9479000C947900000000080002010053
:100070000003040700000000000000000102040863
:100080001020408001020408102001020408102002
:10009000040404040404040402020202020203032E
:1000A0000303030300000000250028002B000000CC
:1000B0000000240027002A0011241FBECFEFD8E043
:1000C000DEBFCDBF11E0A0E0B1E0EAE5F6E002C09E
:1000D00005900D92AA30B107D9F721E0AAE0B1E06E
:1000E00001C01D92A331B207E1F70E941B030C94DB
:1000F0002B030C94000061E0809108010E94AB0288
:1001000061E0809106010E94AB0261E080910401F0
:100110000E94AB0261E0809102010E94AB0261E0AB
:10012000809100010C94AB02AF92BF92CF92DF920C
:10013000EF92FF920F931F93CF93DF9388E0C82E27
:1001400081E0D82E61E0F60180810E94E40200E0A7
:1001500011E061E0F80180810E94E40268E873E147
:1001600080E090E00E940D0260E0F80180810E9432
:10017000E40268EE73E080E090E00E940D0261E02E
:10018000F80180810E94E40268EE73E080E090E074
:100190000E940D0260E0F80180810E94E40292E07A
:1001A000A92E91E0B92E61E0F50180810E94E40260
:1001B00026E0E22E21E0F22E61E0F70180810E942C
:1001C000E40268EE73E080E090E00E940D0260E0DF
:1001D000F70180810E94E40260E0F60180810E94C4
:1001E000E402C4E0D1E061E088810E94E40260E4BE
:1001F0007FE180E090E00E940D0260E088810E9433
:10020000E40268EE73E080E090E00E940D0261E09D
:1002100088810E94E40268EE73E080E090E00E9432
:100220000D0260E088810E94E40261E0F7018081B4
:100230000E94E40260ED77E080E090E00E940D0211
:1002400060E0F70180810E94E40261E0F6018081B4
:100250000E94E40260E0F50180810E94E40261E016
:10026000F80180810E94E40268E873E180E090E098
:100270000E940D0260E0F80180810E94E40268EEB5
:1002800073E080E090E00E940D0261E0F80180815F
:100290000E94E40268EE73E080E090E00E940D02AC
:1002A00060E0F80180810E94E40261E0F501808154
:1002B0000E94E40261E0F70180810E94E40268EE9E
:1002C00073E080E090E00E940D0260E0F601808122
:1002D0000E94E40260E0F70180810E94E40261E094
:1002E00088810E94E40260E777E180E090E00E946C
:1002F0000D0260E088810E94E40268EE73E080E015
:1003000090E00E940D0261E088810E94E40268EEA4
:1003100073E080E090E00E940D0260E088810E941E
:10032000E40261E0F7018081DF91CF911F910F918D
:10033000FF90EF90DF90CF90BF90AF900C94E402CD
:100340001F920F920FB60F9211242F933F938F930A
:100350009F93AF93BF9380910B0190910C01A0915B
:100360000D01B0910E0130910A0123E0230F2D37CA
:1003700020F40196A11DB11D05C026E8230F0296A9
:10038000A11DB11D20930A0180930B0190930C01D4
:10039000A0930D01B0930E0180910F019091100177
:1003A000A0911101B09112010196A11DB11D809380
:1003B0000F0190931001A0931101B0931201BF910E
:1003C000AF919F918F913F912F910F900FBE0F9002
:1003D0001F9018953FB7F89480910F0190911001EC
:1003E000A0911101B091120126B5A89B05C02F3F25
:1003F00019F00196A11DB11D3FBF6627782F892FE7
:100400009A2F620F711D811D911D42E0660F771FAB
:10041000881F991F4A95D1F708958F929F92AF92A6
:10042000BF92CF92DF92EF92FF926B017C010E940C
:10043000EA014B015C01C114D104E104F104F1F0C3
:100440000E942A030E94EA01681979098A099B0916
:10045000683E73408105910570F321E0C21AD1080E
:10046000E108F10888EE880E83E0981EA11CB11CFB
:10047000C114D104E104F10429F7DDCFFF90EF901E
:10048000DF90CF90BF90AF909F908F900895789419
:1004900084B5826084BD84B5816084BD85B5826089
:1004A00085BD85B5816085BDEEE6F0E08081816027
:1004B0008083E1E8F0E01082808182608083808127
:1004C00081608083E0E8F0E0808181608083E1EBFF
:1004D000F0E0808184608083E0EBF0E080818160E7
:1004E0008083EAE7F0E0808184608083808182609D
:1004F0008083808181608083808180688083109286
:10050000C1000895833081F028F4813099F0823061
:10051000A1F008958730A9F08830B9F08430D1F483
:10052000809180008F7D03C0809180008F778093C1
:100530008000089584B58F7702C084B58F7D84BD17
:1005400008958091B0008F7703C08091B0008F7DB7
:100550008093B0000895CF93DF9390E0FC01E458BE
:10056000FF4F2491FC01E057FF4F8491882349F10C
:1005700090E0880F991FFC01E255FF4FA591B491BF
:100580008C559F4FFC01C591D4919FB7611108C054
:10059000F8948C91209582238C93888182230AC0C1
:1005A000623051F4F8948C91322F309583238C93E0
:1005B0008881822B888304C0F8948C91822B8C9341
:1005C0009FBFDF91CF9108950F931F93CF93DF9338
:1005D0001F92CDB7DEB7282F30E0F901E859FF4F61
:1005E0008491F901E458FF4F1491F901E057FF4F4E
:1005F00004910023C9F0882321F069830E948202BC
:100600006981E02FF0E0EE0FFF1FEC55FF4FA59141
:10061000B4919FB7F8948C91611103C01095812318
:1006200001C0812B8C939FBF0F90DF91CF911F91C1
:100630000F91089508950E9447020E941A030E9494
:100640007B00C0E0D0E00E9494002097E1F30E947C
:0A0650000000F9CF0895F894FFCFE1
:0A065A0006000700080009000A006E
:00000001FF
